:020000040800F2
:10000000000400203F020008850200088702000863
:100010008B0200088F020008930200080000000015
:10002000000000000000000000000000970200082F
:1000300099020008000000009B0200089D020008D1
:100040005F0200085F0200085F020008171800083E
:100050005F0200085F0200085F0200085F020008FC
:100060005F0200085F0200085F0200085F020008EC
:100070005F0200085F0200085F0200085F020008DC
:100080005F0200085F0200085F0200085F020008CC
:100090005F0200085F0200085F0200085F020008BC
:1000A0005F0200085F0200085F0200085F020008AC
:1000B0003D0500085F0200085F0200085F020008BB
:1000C0005F0200085F0200085F0200085F0200088C
:1000D0005F020008311D00084D1D0008691D000861
:1000E0005F020008351800085F0200085F02000880
:1000F0005F0200085F0200085F0200085F0200085C
:100100005F020008F73700085F0200085F0200087E
:100110006B1D00086D1D00085F0200085F020008EB
:100120005F0200085F0200085F020008173800083D
:1001300000F002F800F072F80AA090E8000C824487
:100140008344AAF10107DA4501D100F067F8AFF264
:10015000090EBAE80F0013F0010F18BFFB1A43F0A5
:1001600001031847F8910000189200000A444FF06C
:10017000000C10F8013B13F0070408BF10F8014B06
:100180001D1108BF10F8015B641E05D010F8016B4B
:10019000641E01F8016BF9D113F0080F1EBF10F8AF
:1001A000014BAD1C0C1B09D16D1E58BF01F801CBD2
:1001B000FAD505E014F8016B01F8016B6D1EF9D555
:1001C0009142D6D37047000000230024002500266A
:1001D000103A28BF78C1FBD8520728BF30C148BFAA
:1001E0000B607047662908F0E287642907F03C81BC
:1001F000752907F03981732907F0F98400207047C9
:100200001FB508F022FF07F033FD04000020002195
:1002100008F096FAE0601FBD10B510BD07F048FE6B
:100220001146FFF7EDFF04F084FD07F066FE03B40E
:10023000FFF7F2FF03BC07F0A7FE000070470B4872
:1002400080470B4981F308880A480047FEE7FEE72C
:10025000FEE7FEE7FEE7FEE7FEE7FEE7FEE7FEE776
:1002600005480649044A064B704700003D02000855
:1002700040120020310100084010002040120020F0
:1002800040100020704700BFFEE700BFFEE700BF40
:10029000FEE700BFFEE770477047704770470000F9
:1002A000074A126812F0807F08D000BF4FF060420A
:1002B0001268002AFAD04FF06043187070470000AF
:1002C000FCED00E030B585B004460D46684605F00B
:1002D0004BF89348844202D09248844207D1019857
:1002E00028604FF6FF706860002005B030BDB4F1A3
:1002F000804F0ED08C4884420BD08C48844208D06A
:100300008B48844205D08B48844202D08A4884427C
:1003100006D1039828604FF6FF7068600020E4E77C
:100320000220E2E72DE9F047804614461D46D8F842
:10033000000008F0E8FB064622462B4608F0F6FBD4
:1003400009D20020C8F81000C8F80C00C8F8140042
:100350000320BDE8F087002213462046294608F016
:1003600069FB08D10020C8F81000C8F80C00C8F8D4
:1003700014000420EDE7D8F80400B0F5803F04D263
:10038000D8F80400401CC8F804000020C8F8100089
:1003900000BFD8F81000401CD8F80010B1FBF0F0F6
:1003A000C8F80C00D8F80C0008F0ADFB0646224651
:1003B0002B4608F0E7F9814608F078FBC8F80C00F6
:1003C000D8F81000401CC8F81000D8F80410D8F86D
:1003D0000C00884206D9D8F80800401CD8F8101044
:1003E0008142D6D9D8F80800401CD8F810108142B4
:1003F00008D90020C8F81000C8F80C00C8F814008C
:100400000420A6E72046294608F050FBC8F814004F
:1004100000209EE710B504464148844204D10121E2
:10042000C01405F00EF836E0B4F1804F04D101217C
:10043000084605F013F82EE03C48844204D101211F
:10044000022005F00BF826E03948844204D101214E
:10045000042005F003F81EE03348844204D1012152
:10046000082004F0FBFF16E03248844204D1012149
:10047000102004F0F3FF0EE02F48844204D1012144
:10048000202004F0EBFF06E02648844203D101213E
:10049000401404F0D6FF002010BD10B504462048DB
:1004A000844204D10021C01404F0CBFF36E0B4F143
:1004B000804F04D10021012004F0D0FF2EE01B4822
:1004C000844204D10021022004F0C8FF26E018482D
:1004D000844204D10021042004F0C0FF1EE0124831
:1004E000844204D10021082004F0B8FF16E011482E
:1004F000844204D10021102004F0B0FF0EE00E4829
:10050000844204D10021202004F0A8FF06E0054821
:10051000844203D10021401404F093FF002010BD59
:10052000002C014000340140000C00400004004059
:1005300000080040001000400014004010B50121E8
:10054000880706F050F94A480068401C484908608E
:100550004848006820B147480068401E4549086087
:10056000AFF3008010BD00B58FB001A94FF08040FF
:10057000FFF7A8FE0022404B01A8FFF7D3FE4FF083
:100580008040FFF747FF0020ADF83600ADF832009D
:1005900040F2E730ADF83400384901980968B1FB02
:1005A000F0F03749484335490968B1FBF0F0401E87
:1005B00080B2ADF8300000208DF838000CA94FF063
:1005C000804005F0CCFB08A805F012FE0020ADF835
:1005D0002000ADF8260008A94FF0804005F0D8FBB8
:1005E0000121880706F0EBF801221146900705F07B
:1005F00036FE4FF4A06005F0CBFA1C208DF81C00ED
:1006000001208DF81F0000208DF81D008DF81E00C0
:1006100007A805F0C2FA0121880705F005FE0FB012
:1006200000BD10B51748007800B110BD4FF4803000
:1006300004F0C1FD00BF04F0FDFD0028FBD0FFF772
:1006400092FF01200F49087000BFEEE710B50D487A
:10065000007800B910BD0121880705F0E5FD00BF55
:10066000F8E710B500214FF0804005F0DDFD10BD2A
:100670000C0000201000002080842E41B892000859
:1006800040420F001400002001460878282801D1BC
:10069000012070470020FCE770B505460C46204657
:1006A000FFF7F2FF08B9002070BD284600F083FA7A
:1006B0002146284600F024FC4421284600F002FB95
:1006C0000120F1E710B50446204600F074FACC2171
:1006D000204600F0F7FA4421204600F0F3FA10BD5E
:1006E0002DE9F74F86B089469246002005900027F5
:1006F0004846FFF7C9FF18B9002009B0BDE8F08FE0
:10070000069800F07FFA08B90020F6E7069800F096
:1007100052FA4946069800F0F3FBBE21069800F015
:10072000D1FA002706E0069800F093FA02A9C8550E
:10073000781CC7B2092FF6DB082102A800F0FEFBE7
:1007400080469DF81010414501D00020D5E79DF866
:1007500008009DF8091040EA0124069800F02BFAE1
:1007600014F4004F04D0E043401C84B201200590F3
:100770009DF80C00C0F3411000F1090620114FFA5A
:1007800080FBC4F302204BEA001B092E06D00A2E80
:1007900010D00B2E1AD00C2E30D123E0C4F3C000A1
:1007A00008F040FB05464FF07C51284608F086FBD8
:1007B000054627E0C4F3810008F034FB05464FF0FE
:1007C0007A51284608F07AFB05461BE0C4F3420044
:1007D00008F028FB05464FF07851284608F06EFBDC
:1007E00005460FE004F00F0008F01CFB05464FF033
:1007F0007651284608F062FB054603E0D74D4FF0DE
:10080000000B00BF00BF584608F00CFB29460190C2
:1008100008F07EFA0546059820B12946002008F028
:1008200051FC0546CAF80050012066E770B506463F
:100830000C462046FFF728FF08B9002070BD30465F
:1008400000F0B9F92146304600F05AFBBE2130468F
:1008500000F038FA304600F0FCF9304600F0F9F9C3
:10086000304600F0F6F9304600F0F3F9304600F07B
:10087000F0F90546C5F341100930DFE72DE9F047EF
:1008800007460E4615463046FFF7FEFE10B900201B
:10089000BDE8F087384600F08EF93146384600F062
:1008A0002FFBBE21384600F00DFA384600F0D1F992
:1008B000384600F0CEF9384600F0CBF9804638468D
:1008C00000F0C7F98146384600F0C3F90446092D07
:1008D00004D124F0400424F0200413E00A2D04D1B4
:1008E00024F0400444F020040CE00B2D04D144F02B
:1008F000400424F0200405E00C2D03D144F0400412
:1009000044F02004384600F056F93146384600F0ED
:10091000F7FA4E21384600F0D5F94146384600F046
:10092000D1F94946384600F0CDF92146384600F065
:10093000C9F9384600F03FF93146384600F0E0FA90
:100940004821384600F0BEF90120A1E72DE9F04723
:1009500006460D4614462846FFF796FE10B90020BD
:10096000BDE8F0877D2C00DD7D2414F1370F01DA1E
:100970006FF03604304600F01EF92946304600F08C
:10098000BFFABE21304600F09DF9304600F061F913
:10099000304600F05EF9304600F05BF980463046A4
:1009A00000F057F90746304600F053F98146E7B2A8
:1009B000304600F000F92946304600F0A1FA4E21F9
:1009C000304600F07FF94146304600F07BF9394669
:1009D000304600F077F94946304600F073F930466A
:1009E00000F0E9F82946304600F08AFA48213046FE
:1009F00000F068F90120B3E72DE9F04706460D46FF
:100A000014462846FFF740FE10B90020BDE8F087E5
:100A10007D2C00DD7D2414F1370F01DA6FF03604F0
:100A2000304600F0C8F82946304600F069FABE2189
:100A3000304600F047F9304600F00BF9304600F040
:100A400008F9304600F005F90746304600F001F994
:100A50008146304600F0FDF88046E7B2304600F0AF
:100A6000AAF82946304600F04BFA4E21304600F0F5
:100A700029F93946304600F025F94946304600F05C
:100A800021F94146304600F01DF9304600F093F858
:100A90002946304600F034FA4821304600F012F979
:100AA0000120B3E72DE9F04105460C462046FFF74B
:100AB000EBFD10B90020BDE8F081284600F07BF87E
:100AC0002146284600F01CFABE21284600F0FAF81C
:100AD000284600F0BEF8284600F0BBF8284600F093
:100AE000B8F80746284600F0B4F80646284600F055
:100AF000B0F880467D27C926284600F05CF82146DC
:100B0000284600F0FDF94E21284600F0DBF8394672
:100B1000284600F0D7F83146284600F0D3F8414681
:100B2000284600F0CFF8284600F045F82146284630
:100B300000F0E6F94821284600F0C4F80120BAE7A1
:100B400010B50446EC21204600F0CDF810BD10B5DC
:100B50000446204600F056F810BD000000007F4318
:100B60004FF08042918C00BF00BF4FF08042928CCA
:100B7000521AFAD04FF08042918C421E1000F3D1ED
:100B800070472DE9F04104460D4616461F46FFF713
:100B900048FD0121384604F054FCF6480680102038
:100BA000F449C87003208870284604F0B7F925601E
:100BB000A680BDE8F08170B50446A0882168486130
:100BC0001020EC49C870A0880880206804F0A6F9BD
:100BD0004FF4F070FFF7C4FF4820E649C870A088C2
:100BE0000880206804F09AF93C20FFF7B9FFA1883B
:100BF000206804F024FA05464FF4D270FFF7B0FFE6
:100C0000284670BD70B504460025A088216848615B
:100C10001020D849C870A0880880206804F07EF9A8
:100C20000120FFF79DFF4820D249C870A0880880A6
:100C3000206804F073F90E20FFF792FFA188206866
:100C400004F0FDF900B101252D20FFF789FF2846AA
:100C500070BD70B505460826002406E064102846DD
:100C6000FFF7D0FF44EAC010C4B23000A6F1010182
:100C7000CEB2F3D1204670BD70B504460D46A088B3
:100C8000216848611020BB49C870A088088020688E
:100C900004F044F90120FFF763FF3DB14820B54956
:100CA000C870A0880880206804F038F93B20FFF75E
:100CB00057FF4820AF49C870A0880880206804F01A
:100CC0002DF970BD70B505460C46082605E004F008
:100CD00001012846FFF7D0FF64103000A6F10101A2
:100CE000CEB2F4D170BD2DE9F34F81B00446012698
:100CF0004FF0000A0025012700200090207A80BBD9
:100D00002046FFF758FF28B10020A0712072E07143
:100D1000BDE8FE8F20460299FFF7D4FF00BF2046B2
:100D2000FFF770FF80462046FFF76CFF8146B8F161
:100D3000010F03D1B9F1010F00D144E0C84501D042
:100D4000C34620E0A079B0420CDD04F10900405D0B
:100D50003840002801DD012000E0002000F0FF0BFA
:100D600008E03BE0A079B04201D1012000E0002082
:100D700000F0FF0BBBF1000F05D1B246BAF1090F2D
:100D800001DA84F807A0BBF1010F07D104F10900D3
:100D9000405D384304F10901485506E004F10900BB
:100DA000405DB84304F10901485559462046FFF714
:100DB00063FF701CC6B27806070E17B9681CC5B26F
:100DC0000127082DABDB00BF412E07DB84F806A00E
:100DD000A07908B90120207201200090009808B184
:100DE000607A20B90020A0712072E0710090009814
:100DF0008EE7002181710172C171704710B5044600
:100E00002046FFF7F6FFF0212046FFF76CFF10BDEC
:100E100010B50446F0212046FFF765FF10BD2DE90F
:100E2000FC470446002505E004F10900405D0DF88B
:100E300005006D1C082DF7DBA77994F8088094F85D
:100E400007904020A07100202072F0212046FFF77B
:100E50004AFF78B10126002509E01DF8051004F1CC
:100E60000900405D814201D0012602E06D1C082D81
:100E7000F3DB00E00026002505E01DF8051004F175
:100E8000090041556D1C082DF7DBA77184F8088017
:100E900084F807903046BDE8FC8710B50A464272D8
:100EA000012105E0002400F109035C544B1CD9B278
:100EB0000829F7DB402383710023C371037210BD3F
:100EC000C17981710021C171817909B90121017252
:100ED0007047024602F10900405C704770B5064653
:100EE0000D4655213046FFF7EDFE002405E0295D53
:100EF0003046FFF7E7FE601CC4B2082CF7DB70BD7C
:100F000070B506460D4655213046FFF7DBFE00243E
:100F100005E0295D3046FFF7D5FE601CC4B2082C01
:100F2000F7DB70BD0246002005E002F109031B5CFF
:100F30000B54431CD8B20828F7DB7047F0B50246C3
:100F40000B46002010E012F8015B08240AE080EA5A
:100F5000050606F00101401009B180F08C006D100B
:100F6000661EF4B2002CF2D11E00A3F10107FBB201
:100F7000E9D1F0BD1C0000204FF08042918C00BFF1
:100F800000BF4FF08042928C521AFAD04FF080424C
:100F9000918C421E1000F3D1704710B50121202022
:100FA00004F04FFA0220744908801020C870032012
:100FB0008870724803F0B2FF48206F49C8706F48CC
:100FC00003F0ACFF002010BD10B5FFF72AFBFFF7C0
:100FD000E4FF002010BD2DE9FC4106464FF0120849
:100FE00010206549C870654803F098FF02206449E5
:100FF000086003E04FF47A70FFF7BEFF5FEA080075
:10100000A8F1010101F0FF08F4D102205D49086058
:101010004FF01E00FFF7B0FF48205749C8705748EF
:1010200003F07CFF002408E0552C02D90220BDE823
:10103000FC81641C0120FFF79FFF02214F4803F051
:10104000FEFF0128F0D0002407E0552C01D9032031
:10105000EDE7641C0120FFF78FFF0221474803F0F2
:10106000EEFF0028F1D0002407E0552C01D9042020
:10107000DDE7641C0120FFF77FFF02213F4803F0FA
:10108000DEFF0128F1D0002535E000200DF8050035
:1010900008272CE0002407E04B2C01D90520C6E7E7
:1010A000641C0120FFF768FF0221344803F0C7FFEA
:1010B0000028F1D0002407E05A2C01D90620B6E719
:1010C000641C0120FFF758FF02212C4803F0B7FFF2
:1010D0000128F1D01D2C08D31DF80500791E01222E
:1010E0008A401043C0B20DF80500781EC7B2002F29
:1010F000D0DC681CC5B2052DC7DB9DF800009DF84B
:10110000011008449DF8021008449DF8031008449B
:10111000C0B29DF80410884201D0072087E79DF8EF
:1011200001009DF8001001EB810100EB410070808F
:101130009DF8020010F0800F0CD09DF803009DF880
:10114000021001F07F0101EB810100EB4100404200
:10115000308008E09DF803009DF8021001EB81014A
:1011600000EB41003080002061E710B504462046C6
:10117000FFF731FF10BD00002000002000140140E7
:10118000141401401014014010B501460869801E76
:101190000861002805DC08690C3008614869401EB8
:1011A00048616423486990FBF3F04A69D31702EB66
:1011B0009373C0EBA3004FF4C87492FBF4F30344A1
:1011C00040F26F14086960430C2490FBF4F018445B
:1011D000CB68034440F26D1402FB0430F84BC01A94
:1011E00000EB40008B6803EBC000C0EB00104B68C5
:1011F00003EB8000C0EB00100B6803EB800010BD18
:10120000F0B58DB004463022EE4901A806F0F5F99C
:101210006069451E642195FBF1F12846EA1705EB4C
:101220009272C1EBA2014FF4C87295FBF2F28F18D3
:101230006069C11700EB91718910B0EB810112D187
:101240006422616991FBF2F302FB131131B9920040
:10125000616991FBF2F302FB131121B921690229A3
:1012600001DD012600E0002640F26D1005FB007153
:101270002069401E01AA52F820000844E168084491
:101280000644072096FBF0F100FB1160A0610DB051
:10129000F0BD70B5044605F00DFB2046FFF7B0FF2A
:1012A0002046FFF771FF054605F0CFFA05F002FB77
:1012B000C548006820B144F22131042005F07FFBCD
:1012C000002070BD10B504466CB9012004F040F850
:1012D00000BF612003F092FF0028FAD04FF40070A5
:1012E00004F039F80EE0012C0CD1012004F01AF8BA
:1012F00000BF412003F082FF0028FAD04FF4807035
:1013000004F029F8012004F02CF805F0DAFA41F293
:101310003421042005F053FB10BD2DE9F0410746B0
:101320000C46AA48B7FBF0F6B7FBF0F100FB1178CA
:101330004FF4616098FBF0F0A0604FF4616098FB9F
:10134000F0F100FB11803C2190FBF1F060604FF464
:10135000616098FBF0F100FB11803C2190FBF1F201
:1013600001FB1200206040F2B27509E015F0030F96
:1013700002D14FF4B77001E040F26D10361A6D1CC7
:1013800015F0030F02D14FF4B77001E040F26D1079
:10139000B042EBDD65616069C11700EB91718910A6
:1013A000B0EB810102D11D2089494860012505E08B
:1013B000681E874951F82000361A6D1C681E844942
:1013C00051F82000B042F3DD1C2048602561701CFC
:1013D000E0602046FFF714FFBDE8F08170B50446D9
:1013E00005F02AFA054621462846FFF796FF70BD0C
:1013F00070B588B00446012601214FF0C05004F0BA
:101400002DF8012005F019FB042005F0DDFA054652
:10141000A5F58640213814D144F221306A4908608C
:1014200014B90020FFF74EFF05F04BFA022005F03B
:101430007EFA4FF4003005F0F5FB01A8FFF7CEFF70
:101440002FE0A5F59050343814D141F234205E4994
:10145000086014B90020FFF735FF05F032FA0220CA
:1014600005F065FA4FF4003005F0DCFB01A8FFF74A
:10147000B5FF16E000205449086000262046FFF71B
:1014800021FF012004900790059000200690039012
:101490000290019001A8FFF7FCFE41F234204A4976
:1014A000086016B9002008B070BD47480068FAE728
:1014B00030B587B0054600240020039009E0285D80
:1014C0003038039901EB810100EB41000390601C6F
:1014D000C4B2285D302802DB285D3928EFDD601CAE
:1014E000C4B20020049009E0285D3038049901EB73
:1014F000810100EB41000490601CC4B2285D3028DB
:1015000002DB285D3928EFDD601CC4B200200590A5
:1015100009E0285D3038059901EB810100EB4100BD
:101520000590601CC4B2285D302802DB285D392894
:10153000EFDD601CC4B20020029009E0285D303865
:10154000029901EB810100EB41000290601CC4B2E2
:10155000285D302802DB285D3928EFDD601CC4B22D
:101560000020019009E0285D3038019901EB8101EC
:1015700000EB41000190601CC4B2285D302802DB02
:10158000285D3928EFDD601CC4B20020009009E01E
:10159000285D3038009901EB810100EB410000909B
:1015A000601CC4B2285D302802DB285D3928EFDDDD
:1015B000601CC4B26846FFF76CFE07B030BD000087
:1015C0008BFA0A00B4910008240000208051010029
:1015D0004000002030B502460AB10C2A01DD00208F
:1015E00030BD01F5FA63D81703EB90708010B3EBB0
:1015F000800006D11846642490FBF4F504FB150026
:1016000040B901F5FA604FF4C87490FBF4F504FB9F
:10161000150008B9012000E0002000EB40008D4CCF
:1016200004EB8004501E205CDAE710B5014601F59A
:10163000FA62D01702EB90708010B2EB800007D1F5
:1016400001F5FA60642390FBF3F403FB140040B946
:1016500001F5FA604FF4C87390FBF3F403FB140038
:1016600010B94FF4B77001E040F26D1080B210BDB8
:1016700070B504464FF4003005F0D4FA03207649E3
:10168000087001204870002088704FF400307349C2
:101690000860002008710820487184B900210120E9
:1016A00005F0A4F800206C49C870084604F075FAEB
:1016B00000206A498871084605F027FA40E00120B9
:1016C0006549C870084604F068FA012063498871CA
:1016D000084605F01AFA012C01D1614D23E0022CD5
:1016E00001D1604D1FE0032C01D15F4D1BE0042CA4
:1016F00001D15E4D17E0052C02D14FF6FF7512E0C7
:10170000062C02D147F6FF750DE0072C02D143F6F7
:10171000FF7508E0082C02D141F6FF7503E0092CA3
:1017200001D140F6FF7505F0CCF8284605F09AF88F
:1017300005F0C0F80121084605F058F805F0BAF8A0
:1017400070BD10B5044614B1012C12D100E000BFE9
:10175000012005F0D0F800BF012005F0C2F80028F4
:10176000FAD00021022005F041F8022005F0C3F86C
:1017700000E000BF00BF4FF4003005F053FA4FF413
:1017800000303649086000200871082048710120A7
:101790008871084605F0B9F94FF4A06004F0F8F933
:1017A00029202D490870012048708870C8700846AB
:1017B00004F0F3F910BD2DE9F04105460C4628462A
:1017C000FFF7BFFFA078E17801EB410100EBC1001A
:1017D000C0EB0010617801EB8000C0EB00102178B5
:1017E00001EB800615B1012D11D100E000BF05F01D
:1017F00023F88719384605F043F805F05BF8012116
:10180000022004F0F3FF022005F075F800E000BFAD
:1018100000BFBDE8F08110B5012005F077F840B1B8
:10182000012005F084F84FF4003005F0FBF903F0D7
:1018300077F910BD10B5022005F068F820B102203C
:1018400005F075F8AFF300804FF4003005F0EAF9C9
:1018500010BD00002800002070000020740000204F
:10186000FFFF0F00FFFF0700FFFF0300FFFF010066
:1018700010B504464348844204D10121042003F0FA
:10188000E0FD2EE04048844204D10121082003F00D
:10189000D8FD26E03D48844204D10121102003F008
:1018A000D0FD1EE03A48844204D10121202003F0FB
:1018B000C8FD16E03748844204D10121402003F0DE
:1018C000C0FD0EE03448844204D10121802003F0A1
:1018D000B8FD06E03148844203D10121801503F0B0
:1018E000B0FD10BD2DE9F04107460C4615461E46D9
:1018F0000CB9BDE8F0813846FFF7BAFF2848C5703B
:10190000048086700146384603F008FB00BFF0E70C
:1019100010B504461B48844204D10021042003F082
:1019200090FD2EE01848844204D10021082003F0E5
:1019300088FD26E01548844204D10021102003F0E0
:1019400080FD1EE01248844204D10021202003F0D3
:1019500078FD16E00F48844204D10021402003F0B6
:1019600070FD0EE00C48844204D10021802003F079
:1019700068FD06E00948844203D10021801503F088
:1019800060FD10BD00080140000C01400010014046
:101990000014014000180140001C014000200140DB
:1019A0007C0000200146F24A914200D10020F14A19
:1019B000914200D10120F04A914200D10220EF4A29
:1019C000914200D10420EE4A914200D10520704797
:1019D00070477047704710B504460121480403F072
:1019E0003DFD34B9032318220C21E648FFF77AFFA6
:1019F00007E0012C05D1032318226021E248FFF7FC
:101A000071FF10BD10B504460121880303F019FDD4
:101A10006CB9032318224FF40071DA48FFF762FF14
:101A2000032304221102D748FFF75CFF07E0012CD3
:101A300005D103231822C021D448FFF753FF10BD5E
:101A40000146CB4A914200D1D148CA4A914200D1C5
:101A5000D048C94A914200D1CF48C84A914200D1EA
:101A6000CE48C74A914200D1CD487047F0B585B005
:101A700004460D4616462046FFF7E2FF074601964C
:101A8000BB48844212D12846FFF7BCFF25208DF8C1
:101A900000000020ADF810000C20ADF80E00002072
:101AA000ADF80C00ADF80A00ADF80800B14884426A
:101AB00012D12846FFF78FFF26208DF80000002066
:101AC000ADF810000C20ADF80E000020ADF80C00B1
:101AD000ADF80A00ADF80800A748844212D12846A4
:101AE000FFF778FF27208DF800000020ADF81000E8
:101AF0000C20ADF80E000020ADF80C00ADF80A0087
:101B0000ADF808009D48844212D12846FFF761FFD6
:101B100034208DF800000020ADF810000C20ADF846
:101B20000E000020ADF80C00ADF80A00ADF808007A
:101B30009348844212D12846FFF74AFF35208DF89A
:101B400000000020ADF810000C20ADF80E000020C1
:101B5000ADF80C00ADF80A00ADF8080001203873AC
:101B60000021204605F029F9204605F06FF801A96B
:101B7000204605F0B4F80121204605F01EF90122A7
:101B800040F22551204605F024F901208DF803008C
:101B900000208DF801002046FFF704FF8DF80200B9
:101BA000684603F0FAFF05B0F0BD30B504460025E5
:101BB0002046FFF745FF0346D88800280FDD5889E7
:101BC0009988884201D10020588159891868405C61
:101BD00045B25889401C5881D888401ED880E8B248
:101BE00030BD10B504462046FFF72AFF0346D888CB
:101BF0009988884201D1012000E00020C0B210BDC8
:101C0000F0B507460D463846FFF71AFF0346DE8853
:101C10005C890DE09888A04200D100241868005D1E
:101C2000A84201D10120F0BD601C84B2701E86B2B2
:101C3000002EEFDC0020F6E710B503461846FFF74C
:101C4000FFFE0446E08808B9012000E00020C0B291
:101C500010BDF0B507460D46164600243846FFF77E
:101C6000EBFF40B90A213846FFF7CAFF28B93846CA
:101C7000FFF7B7FF08B90020F0BD0BE03846FFF7CB
:101C800094FF2855285D0A2802D1601C84B204E024
:101C9000601C84B2701EA042F0DC00BF00202855FA
:101CA0002046E9E710B504462046FFF7C9FE034683
:101CB0000020D8801881588110BD30B504460B46ED
:101CC0002046FFF7BDFE0546287B00B930BD00BFAA
:101CD000208810F0800FFBD0A38000BFF6E770B51E
:101CE00005460C462846FFF7ABFE0646307B00B99A
:101CF00070BD04E014F8011B2846FFF7DEFF2078D2
:101D00000028F7D100BFF3E7C28883889A420EDA31
:101D1000028983889A4201D10022028103890268E4
:101D2000D1540289521C0281C288521CC280704761
:101D300010B540F225510E4805F00DF928B11948AB
:101D40000088C1B21248FFF7DFFF10BD10B540F2A6
:101D50002551084805F0FFF828B113480088C1B2A2
:101D60000C48FFF7D1FF10BD704770477047000067
:101D7000003801400044004000480040004C004052
:101D8000005000400008014000140140000C0140D8
:101D90008000002090000020A0000020B000002063
:101DA000C0000020043801400444004030B585B034
:101DB00004460D46002000908DF8040001208DF8A7
:101DC00005004FF4602002900020039001208DF860
:101DD0001000D94884420AD10121401503F031FB9B
:101DE000022301222946204603F05BFC1AE0D34877
:101DF00084420AD10121001503F023FB02230122B2
:101E00002946204603F04DFC0CE0CD48844209D120
:101E10000121C80303F015FB0223012229462046B5
:101E200003F03FFC6946204603F0A3FB0121204656
:101E300003F0CBFB204603F0EAFB00BF204603F093
:101E4000EBFB0028FAD1204603F0F0FB00BF204650
:101E500003F0F1FB0028FAD105B030BD70B504469F
:101E60000D460223002229462046FFF73BFD70BDA8
:101E700010B50446B048844202D0B048844204D130
:101E80002021B048FFF7EAFF06E0AD48844203D1C5
:101E90002021AD48FFF7E2FF10BD10B50446A6486B
:101EA000844202D0A548844204D10821A548FFF706
:101EB000D5FF06E0A248844203D11021A248FFF7D3
:101EC000CDFF10BD10B5044608219E48FFF7C6FFA0
:101ED00010BD10B5044604219A48FFF7BFFF10BD9E
:101EE00010B5044602219748FFF7B8FF10BD10B5A2
:101EF000044601219348FFF7B1FF10BD10B5044619
:101F00008D48844202D08D48844204D102218F48FA
:101F1000FFF7A4FF06E08A48844203D108218A48DB
:101F2000FFF79CFF10BD10B504468348844202D0E1
:101F30008248844204D101218448FFF78FFF06E0E4
:101F40007F48844203D101157F48FFF787FF10BD0A
:101F500010B504467848844202D07848844204D1BF
:101F600080217B48FFF77AFF06E07548844203D161
:101F700041157548FFF772FF10BD10B504466E4855
:101F8000844202D06D48844204D140217048FFF75A
:101F900065FF06E06A48844203D181156A48FFF76D
:101FA0005DFF10BD10B504466348844202D063480B
:101FB000844204D120216648FFF750FF06E06048C4
:101FC000844203D180216048FFF748FF10BD10B55F
:101FD00004465948844202D05848844204D1102112
:101FE0005B48FFF73BFF06E05548844203D14021A0
:101FF0005548FFF733FF10BD10B50446082154487B
:10200000FFF72CFF10BD10B5044604215048FFF720
:1020100025FF10BD10B5044602214D48FFF71EFFF5
:1020200010BD10B5044601214948FFF717FF10BD48
:1020300070B505460C461CB92846FFF7F2FF58E07C
:10204000012C03D12846FFF7E5FF52E0022C03D113
:102050002846FFF7D8FF4CE0032C03D12846FFF7B2
:10206000CBFF46E0042C03D12846FFF7B0FF40E049
:10207000052C03D12846FFF795FF3AE0062C03D143
:102080002846FFF77AFF34E0072C03D12846FFF7F4
:102090005FFF2EE0082C03D12846FFF744FF28E01D
:1020A000092C03D12846FFF729FF22E00A2C03D18F
:1020B0002846FFF71CFF1CE00B2C03D12846FFF736
:1020C0000FFF16E00C2C03D12846FFF702FF10E0AB
:1020D0000D2C03D12846FFF7F5FE0AE00E2C03D1A4
:1020E0002846FFF7DAFE04E00F2C02D12846FFF75E
:1020F000BFFE21462846FFF759FE70BD70B5044665
:102100000D46022301222946204603F0CAFA012186
:10211000204603F09AFA00BF0221204603F0E5FBB7
:102120000028F9D0204603F023FB70BD70477047AC
:10213000024688B270470000002401400028014098
:10214000003C014000100140001C0140000C014017
:1021500000080140012070472DE9F04106460027A4
:10216000F848456B01E0F748456B15F0450FFAD08C
:1021700015F0040F06D00327042004F0E3FF3846CF
:10218000BDE8F08115F0010F05D00127012004F012
:10219000D9FF3846F4E704F07DFFB04202D01027A3
:1021A0003846EDE740F2FF5004F0CCFF002004F089
:1021B00075FF0446E448044201D13846E0E714F0D4
:1021C000004F01D01C20DBE714F0804F01D0092024
:1021D000D6E714F0005F01D00A20D1E714F0805F49
:1021E00001D00B20CCE714F0006F01D00C20C7E722
:1021F00014F0806F01D00D20C2E714F0807F01D071
:102200000E20BDE714F4000F01D00F20B8E714F43E
:10221000800F01D01020B3E714F4001F01D011206B
:10222000AEE714F4801F01D01220A9E714F4002FA8
:1022300001D01320A4E714F4802F01D014209FE7CD
:1022400014F4003F01D015209AE714F4803F01D028
:10225000162095E714F4004F01D0172090E714F4EE
:10226000804F01D018208BE714F4005F01D01920B3
:1022700086E714F0080F01D01A2081E738467FE77F
:102280002DE9FC4107460D46002600240020009061
:1022900001900820AD490860102048604020886007
:1022A0000020C8604FF480600861084604F0D8FE42
:1022B0001020FFF751FF044614B12046BDE8FC8111
:1022C000A34800680004A149086037204860402006
:1022D00088600020C8604FF480600861084604F000
:1022E000BFFE3720FFF738FF04460CB12046E5E774
:1022F0004FF0FF3097490860082048603020886020
:102300000220C8600020086101204861084604F0EE
:10231000CAFE00208D490860332048604020886054
:102320000020C8604FF480600861084604F098FE01
:102330003320FFF711FF04460CB12046BEE709E049
:102340004FF4001004F0F4FE20B104F0CEFE4DF87E
:102350002600761C7B48406B40F22A610842EFD091
:10236000082004F0E5FE28B1082004F0EBFE042468
:102370002046A3E7022004F0DBFE28B1022004F08F
:10238000E1FE0224204699E7202004F0D1FE28B186
:10239000202004F0D7FE062420468FE74FF400707B
:1023A00004F0C6FE30B14FF4007004F0CBFE0724F9
:1023B000204683E740F2FF5004F0C4FE0098000678
:1023C000009901F47F4140EA0120009901F47F0166
:1023D00040EA1120009940EA116068600198000607
:1023E000019901F47F4140EA0120019901F47F0144
:1023F00040EA1120019940EA1160286020465DE71B
:102400007CB50546002400200090019004F046FEB3
:1024100010F0007F02D00E2420467CBD69464C4857
:10242000006880B2FFF72CFF04460CB12046F4E7A9
:10243000012D35D1019810F4802F2ED0444800682A
:10244000000442490860372048604020886000202E
:10245000C860A8020861084604F002FE3720FFF7B2
:102460007BFE04460CB12046D7E7022037490860BE
:1024700006204860402088600020C8604FF48060DB
:102480000861084604F0ECFD0620FFF765FE0446EF
:102490000CB12046C1E72046BFE725242046BCE713
:1024A000019810F4803F2FD0294800680004274984
:1024B000086037204860402088600020C8604FF4E2
:1024C00080600861084604F0CBFD3720FFF744FE2A
:1024D00004460CB12046A0E700201C4908600620F5
:1024E0004860402088600020C8604FF48060086128
:1024F000084604F0B5FD0620FFF72EFE04460CB199
:1025000020468AE7204688E72524204685E770B5DF
:102510000446002510480068032802D127252846D4
:1025200070BD0D48006838B10B480068012803D021
:102530000948006802283AD1B4F5805F0ED12725FA
:102540002846EDE70080014008E0FFFDC8020020BA
:10255000D4000020DC020020D0000020B4F5006F81
:1025600014D10120FFF74CFF054605BB7620FB493F
:102570000870002048608860C8604FF400600861FF
:1025800000204861084604F02BFD10E00020FFF712
:1025900037FF05465DB97620F04908700020486095
:1025A0008860C86008614861084604F019FD284643
:1025B000B6E770B504460D464FF00006E8480460E3
:1025C0004FF00700E64948604FF0400088604FF048
:1025D0000000C8604FF480600861084604F040FDC8
:1025E0000720FFF7B9FD0646304670BDF0B501463D
:1025F00000200022DB4B1B6881F85630DA4B1B6849
:10260000A1F85430D94B1B681A0E93090B70C2F312
:1026100083034B7002F003038B70D44B1B68C3F32E
:102620000742CA70D14B1B68C3F307220A71CF4B14
:102630001B68DAB24A71CD4B5B681A0E1301CB806E
:10264000CA4B5B68C3F30742CB8843EA1213CB80C3
:1026500002F00F030B72C54B5B68C3F30722D3096B
:102660004B72C2F380138B72C2F34013CB72C2F36E
:1026700000130B7300234B73BA4B1B681BB1B94B90
:102680001B68012B50D193071B0D0B61B74B5B6887
:10269000DAB20B6943EA82030B61B44B9B681A0EF2
:1026A0000B6943EA92130B61C2F3C2030B7502F08C
:1026B00007034B75AD4B9B68C3F3074253098B75FA
:1026C000C2F38203CB7593075B0F0B76A74B9B6816
:1026D000C3F307220B7E43EAD2130B760B695B1C14
:1026E0000024C1E912340B7ED1E912649B1C012540
:1026F00005FA03F3DF17A6FB035C04FB03C306FB29
:102700000733C1E912530C7A0123A3400B6500275C
:10271000D1E912540B6DA5FB036C04FB03C305FB4D
:102720000733C1E9126335E08E4B1B68022B31D1B0
:102730008E4B5B68DAB293069B0A0B618B4B9B68EE
:102740001A0E0B6943EA02230B61884B9B68C3F3A3
:1027500007420B6913430B61844B9B68C3F3072249
:102760000B6900245D1C64414FF400760027A5FB33
:10277000063C04FB06C405FB07464FF48065A3FB3B
:10278000054C06FB05C503FB0753C1E912434FF493
:1027900000730B65C2F3801301F8193F93065B0EBB
:1027A0004B70724B9B68DAB24B7843EAD2134B7092
:1027B00002F07F038B706D4BDB681A0ED309CB7070
:1027C000C2F341130B71C2F382034B7193071B0FCA
:1027D0008B71664BDB68C3F307428B7943EA921334
:1027E0008B71C2F34013CB7100230B7202F0010313
:1027F0004B725E4BDB68C3F30722D3098B72C2F3C3
:102800008013CB72C2F340130B73C2F300134B73EC
:10281000C2F381038B7302F00303CB73534BDB686A
:10282000DAB253080B7401234B74514B1B681A0E18
:10283000CA74A1F119014E4B1B68C3F307424FEA5A
:102840000223CB854A4B1B68C3F30722CB8D43EA97
:102850000203CB85464B1B68DAB24FEA02640C6375
:10286000434B5B684FEA13620B6B43EA02440C6311
:102870003F4B5B68C3F307420B6B43EA02240C63D4
:102880003B4B5B68C3F307220B6B43EA02030B630A
:10289000374B5B68DAB24FF034035A54344B9B68C1
:1028A0004FEA13624FF035035A54314B9B68C3F320
:1028B00007424FEA02648C632D4B9B68C3F30722E7
:1028C0008B6B43EA02448C63294B9B68DAB28B6BB7
:1028D00043EA02248C63264BDB684FEA13628B6B5E
:1028E00043EA02038B63224BDB68C3F307424FF0DA
:1028F0003C035B5C43EA12134FF03C0463544FEA21
:1029000002734FEA1353CB87194BDB68C3F30722DB
:10291000CB8F43EA0203CB87154BDB68DAB24FEA71
:1029200052034FF0400463544FF001044FF0410351
:102930005C54F0BD70B500250E48446B01E00D48B5
:10294000446B14F0450FFAD014F0040F14D0032593
:10295000042004F0F7FB284670BD0000B002002000
:10296000C8020020D0000020D4000020280200204F
:10297000380200200080014014F0010F05D001252D
:10298000012004F0DFFB2846E6E740F2FF5004F0A8
:10299000D9FB2846E0E72DE9F04106460F464FF007
:1029A0000008F848456B01E0F648456B15F0450F07
:1029B000FAD015F0040F07D04FF00308042004F0FC
:1029C000C1FB4046BDE8F08115F0010F06D04FF085
:1029D0000108012004F0B6FB4046F3E704F05AFB7F
:1029E000B04203D04FF010084046EBE740F2FF50F2
:1029F00004F0A8FB002004F051FB044614F4604FDF
:102A000003D1200C38804046DCE714F4005F01D08D
:102A10001320D7E714F4804F01D01020D2E714F42C
:102A2000004F01D00F20CDE74046CBE738B500245A
:102A30000120009004F0FFFA10B92524204638BD8B
:102A4000D1480068042828D00020D049086002201E
:102A50004860C02088600020C8604FF48060086132
:102A6000084604F0FDFAFFF765FF04460CB1204666
:102A7000E5E7002004F012FBC5490860042004F0DB
:102A80000DFBC3494860082004F008FBC04988607A
:102A90000C2004F003FBBE49C860BB48006858B175
:102AA000B9480068012807D0B7480068062803D055
:102AB000B5480068022816D10020B44908600320F8
:102AC0004860402088600020C8604FF48060086142
:102AD000084604F0C5FA69460320FFF75CFF044688
:102AE0000CB12046ABE7A848006804282ED0BDF8FA
:102AF0000000A8490860BDF800000004A349086070
:102B000009204860C02088600020C8604FF48060C1
:102B10000861084604F0A4FAFFF70CFF04460CB164
:102B200020468CE7002004F0B9FA9B490860042095
:102B300004F0B4FA98494860082004F0AFFA9649C6
:102B400088600C2004F0AAFA9349C860002420464B
:102B500075E770B500258B48446B01E08948446BEC
:102B600014F0450FFAD014F0040F05D0032504200B
:102B700004F0E8FA284670BD40F2FF5004F0E2FA93
:102B80002846F8E770B5002642F210757D48446B80
:102B900002E06D1E7B48446B14F0450F01D1002DFF
:102BA000F7D115B114F0040F05D00326042004F06A
:102BB000C9FA304670BD14F0400F05D00026402001
:102BC00004F0C0FA3046F5E73046F3E770B500256B
:102BD00042F2107400E0641E24B1802004F0A8FAD0
:102BE0000028F8D014B90325284670BD40F2FF50E4
:102BF00004F0A8FA2846F8E72DE9F0410024002661
:102C000000250027A046762064490870002048600F
:102C10008860C86008614861084604F0E1F9032053
:102C200004F0FEF9012004F0F8F90020574908608B
:102C300048608860C8604FF480600861084604F00E
:102C40000FFAFFF7C3FF044614B12046BDE8F08138
:102C50004FF4D5704D4908600820486040208860D6
:102C60000020C8604FF480600861084604F0F8F95D
:102C7000FFF788FF04462CB90120434908604FF054
:102C8000804812E000204149086037204860402019
:102C900088600020C8604FF480600861084604F036
:102CA000DFF93720FFF758FA04460020374908605B
:102CB00037204860402088600020C8604FF4806062
:102CC0000861084604F0CCF93720FFF745FA0446BE
:102CD000ECBB36E000202D490860372048604020DA
:102CE00088600020C8604FF480600861084604F0E6
:102CF000B7F93720FFF730FA04460CB12046A5E7B4
:102D0000274848EA000021490860292048604020FF
:102D100088600020C8604FF480600861084604F0B5
:102D20009FF9FFF716FF04460CB120468EE70020FE
:102D300004F0B4F90646012080EAD67080F001075D
:102D40006D1C1FB94FF6FF708542C3D300E00DE044
:102D50004FF6FF70854202D31B24204676E706F02B
:102D60008040060002D002200749086020466DE737
:102D700010B5002404F026F9FFF73EFF04468CB19D
:102D8000204610BD00800140D0000020C802002075
:102D900038020020D400002028020020B0020020C9
:102DA00000001080FFF742FE04460CB12046E8E721
:102DB0007620FF490870002048608860C86008617C
:102DC0004861084604F00CF9FA48FFF70FFC044686
:102DD00044B9F848B0F85400020410460021FFF747
:102DE000E8FB04461CB90020FFF791FB044600BF36
:102DF0002046C6E708B50121302002F022FB4FF43F
:102E00008070ADF8000003208DF8020018208DF8C6
:102E100003006946E84802F081F80420ADF800009C
:102E20006946E64802F07AF84FF48050ADF80000A9
:102E300018208DF803006946DF4802F06FF8012181
:102E4000880202F0F1FA0121022002F0EDFA08BD39
:102E500008B50121302002F0F4FA002004F0DDF87A
:102E6000002004F0DDF804F0ADF800214FF480609C
:102E700002F0DAFA4FF48070ADF8000004208DF80B
:102E800003006946CC4802F049F80420ADF8000080
:102E90006946CA4802F042F84FF48050ADF800008D
:102EA0006946C54802F03AF808BD08B54FF4C0605D
:102EB00002F06EFE31208DF8000000208DF8010038
:102EC0008DF8020001208DF80300684602F065FECF
:102ED0003B208DF8000000208DF80100684602F0CC
:102EE0005CFEFFF7B5FFFFF785FFFFF741FF30B945
:102EF000B348007820F00100B149087005E0B048FF
:102F0000007840F00100AE490870FFF723F930B9AE
:102F1000AB48007840F00400A949087005E0A848D3
:102F2000007820F00400A6490870A548007808BD84
:102F30000120704700B5FFF7FBFF012801D00120F9
:102F400000BDFFF707F930B99D48007840F0040054
:102F50009B49087005E09A48007820F004009849E1
:102F6000087097480078EBE770B50446002514B95F
:102F70002625284670BD93480068000492490860E1
:102F80000D204860402088600020C8604FF48060B9
:102F90000861084604F064F80D20FFF7DDF80546E7
:102FA0000DB12846E6E7002004F078F820602846B6
:102FB000E0E708B500200090FFF7BAFF012809D12B
:102FC0006846FFF7D1FF08B1FF2008BD0098C0F3A5
:102FD0004320FAE7FF20F8E710B50424FFF7E9FFE4
:102FE0000446042C01D1002010BDFF2C01D1022089
:102FF000FAE70120F8E710B50024002072490860C4
:103000000C204860402088600020C8604FF4806039
:103010000861084604F024F80C20FFF79DF80446E8
:10302000204610BD70B500256C1E00E0641E674888
:10303000006838B96648006820B96648007808B961
:10304000002CF3D1002061490860441E00E0641E9A
:103050006148406B10F4005F01D0002CF7D15F484D
:103060000068012805D1FFF7C6FF054600205B492F
:1030700008600CB905B9042540F2FF5004F062F86D
:103080005448007810B15348007870BD2846FCE7DA
:1030900030B58BB005460C46514802F049FD002181
:1030A000504802F01CFD4F4802F050FC4A48803066
:1030B0000090019500200290A00803900020049049
:1030C00080200590800006908000079000200890E6
:1030D0004FF44050099000200A906946414802F0A0
:1030E000D3FC012202213F4802F004FD01213D48AA
:1030F00002F0F5FC0BB030BD2DE9F04781461446D7
:103100001D46DDE908684FF0000738463149087070
:103110002F4908604FF00100304908604FF000006F
:103120002D49C8624FF0010140F22A3003F088FFB8
:1031300008FB06F14846FFF7ABFF012003F08DFFC7
:1031400029480068022808D106020202002320460E
:10315000294604F0B3F804460D461B4806601020CB
:1031600019494860402088600020C8604FF48060A2
:103170000861084603F074FF1020FEF7EDFF0746D4
:1031800017B13846BDE8F0874FF0FF3017490860A7
:1031900008FB06F04860902088600220C86000208C
:1031A000086101204861084603F07DFF06481FE0E2
:1031B000B00200205802002000100140001401401D
:1031C000E8000020D4000020C8020020E400002015
:1031D000E0000020DC00002000800140D80000203A
:1031E00000F0001044040240D0000020DC02002067
:1031F00004601220FE494860402088600020C860BA
:103200004FF480600861084603F02AFF1220FEF7A1
:10321000A3FF07460FB13846B4E73846B2E72DE9B9
:10322000F041804614461D46069E4FF00007384682
:10323000F0490870F0490860F0490860F049C86238
:103240004FF0010140F22A3003F0FAFE012003F0B2
:1032500004FF31464046FFF71BFFEA48006802289A
:1032600008D10602020200232046294604F026F86F
:1032700004460D46DE4806601020DD4948604020C7
:1032800088600020C8604FF480600861084603F041
:10329000E7FE1020FEF760FF074617B13846BDE88D
:1032A000F0814FF0FF30D849086008464660902012
:1032B00088600220C860002008610120486108463B
:1032C00003F0F1FECA4804601120C949486040205B
:1032D00088600020C8604FF480600861084603F0F1
:1032E000BFFE1120FEF738FF07460FB13846D6E77C
:1032F0003846D4E72DE9FC4106460C461546002722
:10330000C248007810F0010F02D00320BDE8FC8114
:10331000012D08D16B0261020A460093002330465A
:10332000FFF77DFF09E04FF400726102CDE900254F
:103330000A4600233046FFF7DFFEFFF773FE07461D
:1033400000BFFFF749FE0028FBD107B9DEE70120E7
:10335000DCE770B500256C1E00E0641EAC48006818
:1033600038B9A548006820B9A248007808B9002CEF
:10337000F3D10020A6490860441E00E0641EA04866
:10338000406B10F4805F01D0002CF7D19B4800689F
:10339000012805D1FFF72FFE054600209749086058
:1033A0000CB905B9042540F2FF5003F0CBFE91485B
:1033B000007810B18F48007870BD2846FCE730B522
:1033C0008BB005460C46934802F0B2FB00219248B0
:1033D00002F085FB904802F0B9FA894880300090ED
:1033E000019510200290A0080390002004908020F6
:1033F00005908000069080000790002008904FF410
:103400004050099000200A906946834802F03CFB36
:1034100001220221804802F06DFB01217E4802F06A
:103420005EFB0BB030BD2DE9F047814614461D46CA
:10343000DDE908784FF0000630466E4908706E49A5
:1034400008604FF001006D4908604FF000006C49C2
:10345000C8624FF0FF306C4908604FF000004860D0
:103460008860C86008614861084603F01CFE0020BF
:1034700003F0F3FD002003F011FE10F0007F03D0F5
:103480000E263046BDE8F087012140F21A3003F0E5
:10349000D7FD08FB07F14846FFF791FF012003F035
:1034A000DCFD58480068022808D107020202002308
:1034B0002046294603F002FF04460D464C480760AB
:1034C00010204B494860402088600020C8604FF4BD
:1034D00080600861084603F0C3FD1020FEF73CFE43
:1034E00006460EB13046CDE74C480068000440491E
:1034F000086037204860402088600020C8604FF492
:1035000080600861084603F0ABFD3720FEF724FE1B
:1035100006460EB13046B5E73548C0F800801720A2
:1035200033494860402088600020C8604FF48060C4
:103530000861084603F094FD1720FEF70DFE0646CD
:103540000EB130469EE72A48046019202849486099
:10355000402088600020C8604FF480600861084601
:1035600003F07EFD1920FEF7F7FD06460EB130464A
:1035700088E74FF0FF302449086008FB07F04860F7
:10358000902088600020C8600861012048610846DA
:1035900003F089FD304675E72DE9F0418046144679
:1035A0001D46069E4FF00007384612490870124922
:1035B0000860124908601249C8624FF0FF30124992
:1035C00008604FF0000048608860C860086148618A
:1035D000084603F068FD002003F03FFD002003F0E3
:1035E0005DFD10F0007F1BD00E273846BDE8F0814E
:1035F000C8020020DC000020E0000020D8000020ED
:1036000000800140D0000020DC020020E800002003
:10361000E400002000F0001044040240D400002028
:10362000012140F22A3003F00BFD31464046FFF7FE
:10363000C6FE012003F011FDFF480068022808D1F2
:103640000602020200232046294603F037FE044604
:103650000D46FA4806601020F8494860402088600E
:103660000020C8604FF480600861084603F0F8FC51
:103670001020FEF771FD074617B13846BDE8F0810E
:10368000EE4804601820ED49486040208860002022
:10369000C8604FF480600861084603F0E1FC182020
:1036A000FEF75AFD07460FB13846E7E74FF0FF3007
:1036B000E349086008464660902088600020C860A2
:1036C000086101204861084603F0EDFC3846D5E763
:1036D0002DE9FC4106460C4615460027FEF73AFD4B
:1036E00010B90220BDE8FC81012D08D16B026102F6
:1036F0000A46009300233046FFF74EFF09E04FF4DF
:1037000000726102CDE900250A4600233046FFF72A
:103710008AFEFFF71EFE074600BFFFF75DFC00288C
:10372000FBD107B9DEE70120DCE702466AB1022AD5
:1037300004D0032A06D0042A09D107E04FF4007010
:10374000088004E02020086001E000BF00BF00BF47
:103750000020704710B54FF4807003F0F6FC50B1B4
:103760000020B84908704FF4807003F0F8FC012085
:10377000B549086037E0022003F0E7FC30B10220D1
:1037800003F0EDFC0220AF4908702CE0082003F0A4
:10379000DCFC30B1082003F0E2FC0420A9490870E9
:1037A00021E0202003F0D1FC30B1202003F0D7FC31
:1037B0000620A449087016E0102003F0C6FC30B1C2
:1037C000102003F0CCFC05209E4908700BE04FF45C
:1037D000007003F0BAFC30B14FF4007003F0BFFC8E
:1037E00007209849087000214CF23A3003F028FC79
:1037F0009448007810BD10B5FFF7ACFF10BD10B5B0
:10380000924802F09EF928B1904802F0ABF90120ED
:103810008F49086010BD10B5FFF7F1FF10BD10B55E
:10382000FFF716FB10BD10B50024002003F0F8FBD5
:10383000204610BD70B5044600260025002003F088
:103840002DFC10F0007F02D00E26304670BD4020C7
:103850007A49086010204860402088600020C860D5
:103860004FF480600861084603F0FAFB1020FEF771
:1038700073FC06460EB13046E8E77648006800045F
:103880006E49086037204860402088600020C8608A
:103890004FF480600861084603F0E2FB3720FEF732
:1038A0005BFC06460EB13046D0E74FF0FF3064496E
:1038B000086040204860602088600220C8600020C6
:1038C000086101204861084603F0EDFB00205B49D8
:1038D00008600D204860402088600020C8604FF4D8
:1038E00080600861084603F0BBFB0D20FEF734FC46
:1038F00006460EB13046A9E70EE04FF4004003F053
:1039000017FC48B1002504E003F0EFFB44F8250064
:103910006D1C082DF8D320344F48406B40F22A61CB
:103920000842EAD0082003F003FC28B1082003F085
:1039300009FC0426304689E7022003F0F9FB28B190
:10394000022003F0FFFB022630467FE7202003F031
:10395000EFFB28B1202003F0F5FB0626304675E783
:103960004FF4007003F0E4FB30B14FF4007003F04B
:10397000E9FB0726304669E74FF0FF3504E003F026
:10398000B4FB2060241D6D1E4FF4001003F0D0FB2B
:1039900008B1002DF3D140F2FF5003F0D3FB3046C5
:1039A00054E770B50446002600252C48FFF742FF77
:1039B00006460EB1304670BD28480078850925704E
:1039C00026480078C0F340156570244885782802A1
:1039D00060802248C5786088284360801F48057948
:1039E000280660601D484579606840EA05406060CF
:1039F0001A488579606840EA052060601748C579F3
:103A00006068284360601548057A2572457A6572BA
:103A1000807A0509A5721148C57A2802A0810F484D
:103A2000057BA0892843A0810C48407B8508A573AD
:103A30000A48407B14E00000D0000020C8020020AB
:103A4000DC020020DC000020E0000020002000104C
:103A5000E4000020D4000020008001404802002043
:103A600000F00305E5733046A5E7FF48406B10F40E
:103A7000405F01D0012070470020FCE72DE9F041B4
:103A80000646002700240025F84800680004F8498D
:103A900008600D204860402088600020C8604FF416
:103AA00080600861084603F0DBFAEF48456B01E0EF
:103AB000ED48456B15F0450FFAD015F0040F06D010
:103AC0000327042003F03EFB3846BDE8F08115F0E3
:103AD000010F05D00127012003F034FB3846F4E73D
:103AE00003F0D8FA05460D2D02D010273846ECE732
:103AF00040F2FF5003F026FB002003F0CFFA04460B
:103B0000C4F343203070DB48044201D13846DCE77F
:103B100014F0004F01D01C20D7E714F0804F01D0E3
:103B20000920D2E714F0005F01D00A20CDE714F09D
:103B3000805F01D00B20C8E714F0006F01D00C208B
:103B4000C3E714F0806F01D00D20BEE714F0807F32
:103B500001D00E20B9E714F4000F01D00F20B4E714
:103B600014F4800F01D01020AFE714F4001F01D02F
:103B70001120AAE714F4801F01D01220A5E714F445
:103B8000002F01D01320A0E714F4802F01D01420BF
:103B90009BE714F4003F01D0152096E714F4803F12
:103BA00001D0162091E714F4004F01D017208CE7C4
:103BB00014F4804F01D0182087E714F4005F01D07F
:103BC000192082E714F0080F01D01A207DE738464B
:103BD0007BE72DE9F84F04460D4616461F464FF089
:103BE0000008C146C24640460090A34840684FF0D6
:103BF000200111EA105F04D14FF025084046BDE8CE
:103C0000F88F99484068C0B2801C9C49B1FBF0FA1B
:103C1000002003F043FA10F0007F03D04FF00E08AD
:103C20004046ECE796480068022810D102020023C3
:103C30002046294603F042FB04460D464FF400722D
:103C400000233046394603F039FB06460F468C48C0
:103C5000006838B18A480068012803D088480068A5
:103C600002282FD1824804602020814948604020EA
:103C700088600020C8604FF480600861084603F047
:103C8000EFF92020FEF768FA8046B8F1000F01D066
:103C90004046B4E7764806602120754948604020D8
:103CA00088600020C8604FF480600861084603F017
:103CB000D7F92120FEF750FA8046B8F1000F01D065
:103CC00040469CE700206A49086026204860402062
:103CD00088600020C8604FF480600861084603F0E7
:103CE000BFF92620FEF738FA8046B8F1000F01D060
:103CF000404684E74FF0000901E009F10109D14590
:103D0000FBD36846FFF7BAFE80464FF0FF3905E067
:103D10006846FFF7B3FE8046A9F10109B9F1000F2B
:103D20000AD0B8F1000F07D19DF800000728EFD0A6
:103D30009DF800000628EBD0404660E701460020D1
:103D400002E04910421CD0B20129FAD17047F0B507
:103D500093B000250020119012900027402101A867
:103D600003F07DFC002401AE00204649087046495E
:103D70000860464908603C49C86211A93B48006890
:103D800080B2FEF77DFA054615B1284613B0F0BDA6
:103D9000129810F0807F03D1129810F0007F01D0AC
:103DA000012000E000200746E7B3402030490860CA
:103DB00010204860402088600020C8604FF4806078
:103DC0000861084603F04CF91020FEF7C5F90546D6
:103DD0000DB12846DAE74FF0FF302D49086040204A
:103DE0004860602088600220C860002008610120CF
:103DF0004861084603F057F926481D490860062027
:103E00004860402088600020C8604FF480600861EE
:103E1000084603F025F90620FEF79EF9054615B180
:103E20002846B3E774E00EE04FF4004003F080F959
:103E300048B1002404E003F058F946F82400641C5B
:103E4000082CF8D320360848406B40F22A6108421B
:103E5000EAD0082003F06CF9F0B1082003F072F901
:103E60000425284692E7000000800140D40000208D
:103E7000C802002008E0FFFD28020020C0D4010095
:103E8000D0000020DC000020E0000020D80000204E
:103E9000DC02002001FFFF80022003F049F928B175
:103EA000022003F04FF9022528466FE7202003F097
:103EB0003FF928B1202003F045F90625284665E79B
:103EC0004FF4007003F034F930B14FF4007003F098
:103ED00039F90725284659E74FF0FF3404E003F08D
:103EE00004F93060361D641E4FF4001003F020F911
:103EF00008B1002CF3D140F2FF5003F023F99DF8F4
:103F0000110000F00200022801D1002500E0272561
:103F100028463BE72DE9F043144672B6D0F830C08E
:103F2000A44501D9012303E0D0F830C0B4FBFCF371
:103F3000D0F824C0B3FBFCF80CFB1837D0F824C031
:103F4000B3FBFCFCC1F808C0D0F828C0BC44D0F8D2
:103F50002480BCFBF8F908FB19C6D0F848C00CEB6C
:103F6000C60255680A604D602960516062B6BDE8BE
:103F7000F08310B504461CB1A349206A884200D0E2
:103F800010BD2146A1A003F011FAA2A0216B03F0FD
:103F90000DFAA6A0616A03F009FAAAA0E16A03F08B
:103FA00005FAAEA0A16A03F001FAB2A0A16B03F07A
:103FB000FDF9B6A0216C03F0F9F9BAA0616B03F02A
:103FC000F5F9BEA0616C03F0F1F9C2A0E16B03F05A
:103FD000EDF900BFD4E7014609B900207047086831
:103FE00008B10120FAE70020F8E710B100210160D4
:103FF000416070472DE9F05F04460D4690469946B2
:10400000DDE90AAB14B90320BDE8F09F0DB9042027
:10401000FAE77D49206A884201D00520F4E772B6AC
:104020002E682EB16F6877603E60A06B401EA06363
:1040300062B6C5F814A0C5F818B0C5F80C80C5F86C
:104040001090424629462046FFF764FF606C401CF2
:104050006064A06B401CA063D4E90D10884201D9B4
:10406000A06B60630020CFE730B502460AB9032099
:1040700030BD09B90420FBE7634D106AA84201D0A6
:104080000520F5E772B60B685BB14C685C60236095
:10409000002008604860906B401E9063D06B401C0D
:1040A000D06362B60020E3E72DE9F04704461CB177
:1040B0005549206A884201D0BDE8F087E06A401C7B
:1040C000E062A06A401C616AB0FBF1F201FB1200E1
:1040D000A062A16AA06C00EBC1073D6827E02E68D2
:1040E000D5F80480A86818B1A868401EA8601DE033
:1040F00072B6C8F80060C6F80480002028606860C6
:10410000A06B401EA063206C401C206462B6D5F8F2
:1041100014902846A969C847286938B1294620461D
:104120002A69FFF7F7FEA06B401CA0633546BD422D
:10413000D5D100BFC0E7F0B504460CB90320F0BDEF
:104140003149206A884201D00520F8E700250CE0BB
:10415000A06C00EBC506376804E039462046FFF73F
:1041600083FF3768B742F8D16D1C606AA842EFD868
:104170000020206200BFE2E72DE9F04706460F4627
:10418000924698462026B8F1000F02D10320BDE8E0
:10419000F0870020C8F80000202E02D3B6F5805F1B
:1041A00001D90620F3E717B1B7F57A7F01D90720C7
:1041B000EDE74E4C0CB90820E9E74D48A064A06C2F
:1041C00008B90820E3E71F225146204603F06EFAA3
:1041D0000020E0770C4820620020E062A0622763A4
:1041E00066626063A063E06320646064A56C8146DE
:1041F00004E02D606D60083509F10109B145F8D37F
:10420000C8F800400020C2E7BAA3DCFE0A257320EC
:104210000A000000202020202020204772616E75B7
:104220006C61726974793D25750A00002020202098
:1042300020202020576865656C2053697A653D25EC
:10424000750A000020202020202020205469636B64
:1042500020436F756E743D25750A000020202020D4
:1042600020202053706F6B6520496E6465783D2572
:10427000750A0000202020202041637469766520A3
:1042800074696D6572733D25750A00002020202039
:10429000457870697265642074696D6572733D2537
:1042A000750A00002020202020204869776174656D
:1042B00072206D61726B3D25750A00002020202060
:1042C000537461727465642074696D6572733D2501
:1042D000750A0000202043616E63656C6C65642084
:1042E00074696D6572733D25750A0000F402002043
:1042F0004003002010B504462046FFF776FE10BDAF
:1043000010B520480068FFF734FE10BD10B5044614
:104310002046FFF760FE10BD2DE9FC4104460D4626
:1043200016461F46DDF8208033462A4621461548AA
:10433000CDE900780068FFF75DFEBDE8FC8110B5AF
:10434000044621460F480068FFF78EFE10BD10B5E9
:104350000C48006818B10B480068FFF7A5FE10BDB7
:1043600010B508480068FFF7E6FE10BD70B50446BA
:104370000D461646034B324629462046FFF7FCFE03
:1043800070BD0000EC00002010B5034672B61C683A
:10439000944202D11960012400E00024204662B654
:1043A00010BD30B50546002400BF0AE0484901EBC6
:1043B000840000222946FFF7E7FF08B1204630BD00
:1043C000641CFF2CF2DB4FF0FF30F8E730B50446F9
:1043D0000D463F4901EB850000222146FFF7D4FF3F
:1043E00008B1012030BD0020FCE730B505460024AF
:1043F00000BF10E0364850F824002860286848B113
:10440000334901EB840000212A68FFF7BDFF08B1A2
:10441000204630BD641CFF2CECDB4FF0FF30F8E78A
:1044200030B502460B46511C06E0294850F82100E1
:1044300008B9881A30BD491CFF2902DAD018884211
:10444000F3DCD018FF2814DB002108E0204850F8E6
:10445000210018B9C2F1FF000844EBE7491C914262
:1044600007DAD018FF2490FBF4F504FB150088420E
:10447000ECDA4FF0FF30DDE7002106E0144850F899
:10448000210008B908467047491CFF29F6DB4FF0A8
:10449000FF30F8E730B505464FF0FF34FFF7ECFF8B
:1044A0000446601C01D1401E30BD21462846FFF75E
:1044B0008DFF10B94FF0FF30F6E70020F4E730B57C
:1044C00004462046FFF791FF0546284630BD000010
:1044D000400B002010B504462046FCF77FFF00206B
:1044E00010BD10B504462046FCF7D3FE002010BDD9
:1044F00070B50446F948006880BB0120F7490860A0
:1045000020230122F649F748FCF73BFB0020F6493F
:104510000870F448FCF772FCF449087012E0F248A5
:104520000078401CF049087008460078401EF04AA8
:1045300002EBC001EB48FCF7F5FCEA48FCF768FC2D
:10454000EA490870E94800780028E8D1E648007890
:1045500000281DDD0020E749087012E03DE0002042
:10456000E549087004E0E4480078401CE24908701E
:10457000E14800780828F6DBDE480078401CDD4979
:104580000870DC480078D84909788842E7DB02E007
:10459000DAA002F00BFF0020D74908700DE0D448E4
:1045A000D54A127800EBC2010C22CE48FCF766F91E
:1045B000D1480078401CD0490870CF480078CA49DB
:1045C00009788842EBDB1922C949C648FCF714FA7E
:1045D000C7490831C348FCF765FAC248FCF772F8CE
:1045E00000BFC048FCF7B3FA0028FAD00020C24947
:1045F000087024E0C748C04B1B7800EB8302BC481E
:10460000BD4B1B7800EBC301B648FCF769F870B1ED
:10461000C049B94A127851F8220004F0E7FB054678
:104620000246B5480178BCA002F0C0FE02E0BEA080
:1046300002F0BCFEB0480078401CAF490870AE489C
:104640000078A94909788842D4DBB2480068206024
:10465000A948007810B94FF0FF3070BD0020B6496E
:1046600008700CE0B548B44A127800EBC2019D48CE
:10467000FCF758FCB0480078401CAF4908709948D6
:10468000FCF75EFA0028EDD1AB48007800281BDD6E
:1046900000209849087011E000209749087004E054
:1046A00095480078401C9449087093480078082881
:1046B000F6DB90480078401C8E4908708D480078E1
:1046C0009D4909788842E7DB0020C6E72DE9FC47D1
:1046D00080469B48006820B9012099490860FCF792
:1046E00073FC4046FCF741FD10BBB8F900000A21FD
:1046F00090FBF1FA504604F095FB814604F0DCFA99
:1047000004460D46B8F802000A2190FBF1FA504623
:1047100004F088FB814604F0CFFA064602460B46B9
:1047200088A0CDE9004502F041FE0020BDE8FC87ED
:104730004FF0FF30FAE770B5054600248B4800685B
:1047400080B901208949086000218948FDF770FC83
:1047500000218748FDF7D2FC00E0641C4FF6FF7093
:104760008442FADB00218248FDF7C8FC044621465A
:1047700080A002F01BFE204670BD38B5044682487A
:10478000006898B90120804908600121042000F0E8
:1047900058FE2020ADF8000010208DF80300032003
:1047A0008DF802006946794800F0B8FB202177486F
:1047B00000F052FC38BD38B504467348006898B91B
:1047C0000120714908600121042000F03AFE2020F8
:1047D000ADF8000010208DF8030003208DF80200D2
:1047E00069466A4800F09AFB206808B168A000E0BA
:1047F00069A001466AA002F0D9FD206820B12021FD
:10480000624800F036FC03E02021604800F033FCF1
:10481000002038BD38B504466548006898B90120C5
:10482000634908600121042000F00BFE4020ADF830
:10483000000010208DF8030003208DF80200694667
:10484000524800F06BFB4021504800F005FC38BD99
:1048500038B504465648006898B9012054490860A4
:104860000121042000F0EDFD4020ADF800001020F3
:104870008DF8030003208DF802006946434800F0DC
:104880004DFB206808B142A000E043A0014649A0CA
:1048900002F08CFD206820B140213C4800F0E9FB8B
:1048A00003E04021394800F0E6FB002038BD70B538
:1048B00005464448006830B9012042490860032198
:1048C0002B48FDF7B5FB03212948FDF717FC0446EB
:1048D00021463DA002F06AFD204670BD4001002047
:1048E000001401405C0F002048010020440100201A
:1048F0003C0F002046010020450100204E6F20643F
:10490000657669636573206F6E204F6E65576972B7
:10491000652E0A004C01002054656D702025643A14
:104920002025643B200A000052656164696E67209F
:104930006572726F723B0A00470100204C0F002025
:104940005401002048756D69646974793A202532F4
:104950002E31662025250A54656D70657261747567
:1049600072653A2025322E3166204300580100201E
:1049700000240140736F696C68756D64206765740D
:10498000203A2025640A00000401002000080140AC
:10499000656E61626C65000064697361626C6500DC
:1049A00067726F776C696768743A2025730A000034
:1049B000080100205761726D4C696768743A2025C0
:1049C000730A00005C0100206C69676874207661DE
:1049D0006C3A2025640A000038B504464A4800684D
:1049E00098B90120484908600121042000F029FD00
:1049F0008020ADF8000010208DF8030003208DF812
:104A000002006946414800F089FA80213F4800F0E1
:104A100023FB38BD38B504463B48006898B90120EF
:104A2000394908600121042000F00BFD8020ADF819
:104A3000000010208DF8030003208DF80200694665
:104A4000324800F06BFA206810B1AFF2BC0001E010
:104A5000AFF2BC0001462EA002F0A8FC206820B1F5
:104A600080212A4800F005FB03E08021274800F060
:104A700002FB002038BD38B5044628480068A0B9BC
:104A80000120264908600121042000F0DAFC4FF4DF
:104A90008070ADF8000010208DF8030003208DF821
:104AA00002006946194800F039FA4FF4807117483E
:104AB00000F0D2FA38BD38B5044618480068A0B9ED
:104AC0000120164908600121042000F0BAFC4FF4CF
:104AD0008070ADF8000010208DF8030003208DF8E1
:104AE00002006946094800F019FA206828B14FF41D
:104AF0008071064800F0BDFA04E04FF4807103486D
:104B000000F0B9FA002038BD0C0100200008014077
:104B100070756D70413A2025730A00001001002065
:104B200010B5FFF714FC10BD70B5AD48C5686DB188
:104B30000020E96888470446AA4800682044A9493B
:104B40000860A9480068401CA7490860A64800689A
:104B50003C21B0FBF1F201FB1200C0B9A148006892
:104B6000B0FBF1F09F4908600846006840F68C21D0
:104B7000884207D29B4801689CA002F017FC0120E4
:104B8000FFF788FC0020984908609649086070BDCE
:104B9000F0B585B000279A4903C9CDE902019048D4
:104BA0004668F6B304A8F1688847D0BB012001909D
:104BB0008B48466902A8934A126850F8221004985C
:104BC00004F04FFA16D2002001900127049804F057
:104BD00073F8044600228C4B04F038F816D2804853
:104BE000046900200090E168884710B16846216997
:104BF00088470BE07A480469002000900027E168AC
:104C0000884710B168462169884700BF7F4800681F
:104C1000874210D07D4807607A480068401C794977
:104C200000E00CE00860086800EBD0714910A0EBD0
:104C30004101744A116001A83169884700BF05B07D
:104C4000F0BD70B504460D460520FFF723FC70BD8E
:104C500070B504460D460420FFF71CFC70BD70B50E
:104C600004460D460620FFF715FC70BD70B50646DC
:104C70000C462546E87A092802D10720FFF70AFCEE
:104C800070BD7CB5054601200190294660A002F068
:104C90008DFB082D4AD2DFE805F0490419163A26A3
:104CA0003D405F48FFF7A1F94D48446A14B101A89F
:104CB000216988475B4B002241F2883158480094B3
:104CC000FFF72AFB33E00020019000BF444804694D
:104CD00044B146690020F168884710B901A82169EC
:104CE000884700BF23E03E48046A1CB10020E16809
:104CF0008847019041F270710198884203D20220E6
:104D0000FFF7C8FB02E00320FFF7C4FB0FE0FFF74B
:104D10000BFF0CE0FFF73CFF09E03148446A00203C
:104D2000019014B101A82169884700E000BF00BFCD
:104D30007CBD88B002F097FAFBF773FC3AA24FF4FF
:104D40007A714FF40070FFF711FB0120FCF750FB64
:104D500080B9152003900B200290002001900F20B5
:104D6000069003200590072004900120079001A8D9
:104D7000FCF78FFA0620FCF77BFC44F620642D48F4
:104D8000FFF733F9002300932B4B22462146294895
:104D9000FFF7C2FA40F6B8342848FFF726F9002397
:104DA0000093274B224621462448FFF7B5FA41F2EB
:104DB00088342448FFF719F900230093224B224638
:104DC00021462048FFF7A8FA09E06846FFF777FB7D
:104DD000401C03D00098C0B2FFF753FF00BFF4E7B8
:104DE00014010020640100206001002061766572DA
:104DF0006167652068756D643A25640A00000000EB
:104E0000AC9200086C0100200000494068010020BD
:104E100068616E646C6520636D642025640A00001F
:104E2000700F00206D4C000854696D657220576842
:104E300065656C00C40F0020434C00088C0F0020F7
:104E4000514C0008A80F00205F4C000810B5044624
:104E5000C549601A8C422FD009DCC448201810D0F4
:104E6000B0F5806F16D0B0F5006F4AD11BE0B0F5F9
:104E7000806F2AD0B0F5006F30D0B0F5406F40D1D0
:104E800035E00121042000F0F6FA0021042000F0B2
:104E9000F2FA37E00121082000F0EDFA00210820A5
:104EA00000F0E9FA2EE00121102000F0E4FA0021E0
:104EB000102000F0E0FA25E00121202000F0DBFACC
:104EC0000021202000F0D7FA1CE00121402000F052
:104ED000D2FA0021402000F0CEFA13E00121802018
:104EE00000F0C9FA0021802000F0C5FA0AE0012193
:104EF000080200F0C0FA00214FF4807000F0BBFA05
:104F000000E000BF00BF10BD10B50121084600F051
:104F1000B2FA0021012000F0AEFA10BD2DE9F041F7
:104F2000024600250026002000230024002791F8D7
:104F300003C00CF00F0591F803C01CF0100F03D054
:104F400091F802C04CEA0505B1F800C01CF0FF0F53
:104F500031D0146800202BE04FF0010C0CFA00F364
:104F6000B1F800C00CEA03069E4220D183004FF046
:104F70000F0C0CFA03F7BC4305FA03FC4CEA0404DB
:104F800091F803C0BCF1280F06D14FF0010C0CFAC8
:104F900000FCC2F814C00AE091F803C0BCF1480F4D
:104FA00005D14FF0010C0CFA00FCC2F810C0401CF7
:104FB0000828D1D31460B1F800C0BCF1FF0F34DD74
:104FC000546800202EE000F1080C4FF0010808FAA8
:104FD0000CF3B1F800C00CEA03069E4221D1830015
:104FE0004FF00F0C0CFA03F7BC4305FA03FC4CEA34
:104FF000040491F803C0BCF1280F05D100F1080C9E
:1050000008FA0CF8C2F8148091F803C0BCF1480FFC
:1050100007D100F1080C4FF0010808FA0CF8C2F8AB
:105020001080401C0828CED35460BDE8F0814FF6B4
:10503000FF710180022181700421C1707047024616
:10504000002093680B4201D0012000E0002070474F
:105050000146886880B2704702460020D3680B4240
:1050600001D0012000E0002070470146C86880B2EE
:10507000704701617047416170470AB1016100E00A
:1050800041617047C16070474FF480320A438261CA
:105090008161826182698269704702460020344BD7
:1050A00018684FF68073184040EA02100843304BEE
:1050B000186070472F49C8617047F0B50A46002351
:1050C0000024002100252A4E7168C0F3034583B2F5
:1050D00000F44016B6F5401F08D121F07061244E4F
:1050E000766826F07066224F7E6012E000F480162B
:1050F000B6F5801F06D1032606FA05F4A14341F058
:10510000706106E0460D360103FA06F6B14341F040
:10511000706122B1460D360103FA06F63143144E92
:105120007160F0BD30B500228B071C0F0F2303FA0E
:1051300004F20F4B08338C1053F8243093430C4C7B
:1051400008348D1044F8253023468C1053F8243051
:105150008C07240F00FA04F42343054C08348D1007
:1051600044F8253030BD00000014014000F8FEBFB7
:105170000000014000002042DA48006840F00100D1
:10518000D849086008464068D7490840D549486072
:1051900008460068D5490840D249086008460068BA
:1051A00020F4802008600846406820F4FE00486033
:1051B000002088607047CB49096821F48031C94AD2
:1051C00011601146096821F480211160B0F5803F1B
:1051D00003D0B0F5802F0ED106E0C249096841F432
:1051E0008031C04A116007E0BE49096841F4A0213E
:1051F000BC4A116000E000BF00BF704710B5014617
:105200000022002300204A11012A02D1B54C236854
:1052100006E0022A02D1B34C236A01E0B14C636A72
:1052200001F01F02012494401C4201D0012000E043
:10523000002010BD70B500240025002600BF3120DD
:10524000FFF7DCFF0646641C16B9B4F5A06FF6D173
:105250003120FFF7D3FF08B1012500E000252846E3
:1052600070BD014600209F4A106820F0F80040EA17
:10527000C100106070479E490860704702460020D8
:10528000984B586820F47C1042EA01031843954B70
:105290005860704796490866704701460020914A59
:1052A000506820F003000843506070478D48406804
:1052B00000F00C007047014600208A4A506820F038
:1052C000F00008435060704701460020854A50684E
:1052D00020F4E06008435060704701460020814A96
:1052E000506820F4605040EAC1005060704729B116
:1052F0007C4A527A02437B4B5A7206E0794A527AD0
:10530000C343DBB21A40774B5A7270477949086041
:10531000704701460020734A506820F4404008431B
:10532000506070470021744A11706E4A82F8201054
:10533000012802D0042808D103E001216E4A11702F
:1053400004E005216C4A117000E000BF00BF704707
:105350006A49086070476349096A0143614A1162FA
:10536000704767490860704730B50021002200246B
:1053700000235C4D6D6805F00C0121B1042905D0B6
:10538000082923D105E05F4D056022E05D4D0560F1
:105390001FE0544D6D6805F47012022505EB924232
:1053A000504D6D6805F480341CB9574D5543056068
:1053B0000BE04C4D6D6815F4003F03D0524D554342
:1053C000056002E04F4D5543056002E04D4D05601C
:1053D00000BF00BF434D6D6805F0F00109094B4D5A
:1053E0006B5C0568DD4045603E4D6D6805F4E0612D
:1053F000090A464D6B5C4568DD408560394D6D6836
:1054000005F46051C90A414D6B5C4568DD40C560DB
:10541000344D6D6805F44041890B3D4D6B5CC568AA
:10542000B5FBF3F5056130BD29B12E4A526902433F
:105430002C4B5A6104E02B4A52698243294B5A6132
:10544000704729B1274A92690243264B9A6104E0CA
:10545000244A92698243234B9A61704729B1214AB9
:10546000D26902431F4BDA6104E01E4AD2698243CB
:105470001C4BDA61704729B11A4AD2680243194BB2
:10548000DA6004E0174AD2688243164BDA6070474C
:1054900029B1144A12690243124B1A6104E0114AFD
:1054A000126982430F4B1A6170471A4908607047AE
:1054B0000F49C86470470B49C87170470948406A72
:1054C00040F0807007494862704701460020054A55
:1054D00092680A4201D0012000E000207047014993
:1054E00088727047001002400000FFF8FFFFF6FED0
:1054F00000004242D8004242201002408004424252
:105500003C04424200127A0000093D007001002074
:10551000800100204004424210B50446F74820189C
:1055200006D0B0F5806F0DD0B0F5C05F1ED113E08E
:1055300001214802FFF79FFF00214FF40070FFF7A1
:105540009AFF14E001218802FFF795FF00214FF434
:105550008060FFF790FF0AE00121C803FFF78BFF8F
:1055600000214FF40040FFF786FF00E000BF00BFBE
:1055700010BD30B50246002000235068E04C2040AA
:105580000D790C6844EA0524204350609068DD4C96
:105590002040D1E902542C434D7944EA450420438C
:1055A0009060D06A20F470000C7C641E1C43E3B24F
:1055B00040EA0350D06230BD0021016001714171A9
:1055C0008160C16001210174704721B1826842F09D
:1055D0000102826003E0826822F00102826070476B
:1055E00021B1826842F48072826003E0826822F412
:1055F00080728260704710B50023CBB21AB1446844
:105600001C43446002E044689C43446010BD8168D0
:1056100041F0080181607047014600208A6812F05D
:10562000080F01D0012000E000207047816841F0A0
:10563000040181607047014600208A6812F0040F5F
:1056400001D0012000E00020704721B1826842F4BF
:10565000A002826003E0826822F4A00282607047A8
:10566000014600208A6812F4800F01D0012000E07A
:105670000020704710B50A4600210023416821F43C
:105680006041531E41EA4331416010BD21B142687F
:1056900042F40062426003E0426822F40062426029
:1056A0007047F0B504460D4600200021092D11DD9C
:1056B000E068A5F10A0606EB4607072606FA07F199
:1056C0008843A5F10A0606EB460603FA06F10843ED
:1056D000E0600CE0206905EB4507072606FA07F1B4
:1056E000884305EB450603FA06F108432061072AC3
:1056F0000FDA606B561E06EB86071F2606FA07F1C7
:105700008843561E06EB860605FA06F108436063D9
:1057100022E00D2A0FDA206BD61F06EB86071F2624
:1057200006FA07F18843D61F06EB860605FA06F14E
:105730000843206310E0E06AA2F10D0606EB86073D
:105740001F2606FA07F18843A2F10D0606EB86062E
:1057500005FA06F10843E062F0BD21B1826842F427
:105760008012826003E0826822F4801282607047B7
:105770000146C86C80B2704763480068704721B129
:10578000426842F48062426003E0426822F4806230
:105790004260704721B1426842F48052426003E0A7
:1057A000426822F48052426070470A4600218168B4
:1057B00021F4E04111438160704721B1826842F4D5
:1057C0000042826003E0826822F4004282607047F7
:1057D00021B1826842F40212826003E0826822F4FE
:1057E000021282607047014600208A6812F4001F8E
:1057F00001D0012000E000207047F0B504461546B6
:10580000002000220026092911DDE068A1F10A0725
:1058100007EB470C072707FA0CF29043A1F10A07A0
:1058200007EB470703FA07F21043E0600CE020693A
:1058300001EB410C072707FA0CF2904301EB4107FB
:1058400003FA07F210432061A06BC0F30156EF1C6E
:1058500006F1010CA7EB0C0707EB870C1F2707FAD3
:105860000CF29043EF1C06F1010CA7EB0C0707EBC1
:10587000870701FA07F21043A063F0BD10B50A468E
:1058800000210023816B21F44011531E41EA035192
:10589000816310BD4250704702465018806A80B242
:1058A00070470A4600214168184B19401143416076
:1058B00070474162826270470A460021416821F0C8
:1058C0001F0111434160704738B11149096841F423
:1058D0000001104AC2F8081406E00D49096821F4D5
:1058E00000010C4AC2F808147047024600201368F1
:1058F0000B4201D0012000E00020704700DCFEBF19
:10590000FFFEF0FFFDF7F1FF4C240140FFFD3FFFDC
:105910000824014000200140CA430260704770B56E
:1059200002460020002300240B125568CEB205EA7F
:10593000060415681D4202D00CB1012000E00020D1
:1059400070BD00220A12D34303607047016821F042
:10595000010101600021016041608160C160864AEF
:10596000811A90425BD012DC844AA0EB0201904283
:105970003AD007DC824941181BD0142922D02829AB
:105980007FD128E0142938D028297AD13EE0B1F51A
:105990006C7F5DD006DCB1F5627F49D0B1F5677FE1
:1059A0006FD14DE0B1F5717F5AD0B1F5767F68D1F6
:1059B0005FE072494439496841F00F016F4A443A47
:1059C00051605FE06D494439496841F0F0016B4A2C
:1059D000443A516056E069494439496841F470617C
:1059E000664A443A51604DE064494439496841F49B
:1059F0007041624A443A516044E060494439496820
:105A000041F470215D4A443A51603BE05B494439BE
:105A1000496841F47001594A443A516032E05749AB
:105A20004439496841F07061544A443A516029E070
:105A30005449096841F00F01534AC2F8041421E0A7
:105A40005049096841F0F0014F4AC2F8041419E0C6
:105A50004C49096841F470614B4AC2F8041411E0E2
:105A60004849096841F47041474AC2F8041409E002
:105A700007E04449096841F47021434AC2F804141C
:105A800000E000BF00BF704710B50022026847F673
:105A9000F0739A430C6A8B6823430C6923434C6967
:105AA00023438C692343CC6923434C6A23438C6A88
:105AB00023431A430260CB6843600B6883604B68E2
:105AC000C36010BD0021016041608160C16001615F
:105AD00041618161C161016241628162704721B1AE
